:020000040800F2
:100000000041012009080008790800087908000863
:100010007908000879080008790800080000000045
:10002000000000000000000000000000713800081F
:1000300079080008000000001D3A0008F1210008BE
:10004000790800087908000879080008790800088C
:10005000790800087908000879080008790800087C
:10006000790800087908000879080008790800086C
:10007000790800087908000879080008790800085C
:10008000790800087908000879080008790800084C
:10009000790800087908000879080008790800083C
:1000A000790800087908000879080008790800082C
:1000B000790800087908000879080008790800081C
:1000C000790800087908000879080008790800080C
:1000D00079080008790800087908000879080008FC
:1000E00079080008790800087908000879080008EC
:1000F00079080008790800087908000879080008DC
:1001000079080008790800087908000879080008CB
:1001100079080008790800087908000879080008BB
:1001200079080008790800087908000879080008AB
:10013000790800087908000879080008790800089B
:10014000790800087908000879080008790800088B
:10015000790800087908000879080008790800087B
:10016000790800087908000879080008790800086B
:10017000790800087908000879080008790800085B
:10018000790800087908000880B485B000AF0346FC
:100190003960FB80FB887F2B02D8FB88FB8125E040
:1001A0003B68002B0BD0FB88FF2B05D8FB88803BDE
:1001B000124A32F8133000E00023FB8116E00023DE
:1001C000FB8109E0FB890D4A32F81330FA889A4224
:1001D00006D0FB890133FB81FB897F2BF2D900E03C
:1001E00000BFFB8980339BB2DBB2FB81FB891846E1
:1001F0001437BD465DF8047B704700BF44B100086A
:1002000080B485B000AF0346FB800023FB6002E0B2
:10021000FB680133FB600F4AFB6832F81330002B98
:1002200006D00C4AFB6832F81330FA889A42EFD1B4
:10023000084AFB6832F81330002B04D0064AFB68EA
:1002400032F8133000E0FB8818461437BD465DF8DD
:10025000047B704744B2000824B4000880B58AB01B
:1002600000AF7860396000237B6200233B6200238B
:10027000FB610023BB617B681B8A9BB27B627B6A4C
:1002800023F440537B623B68DB881A467B6A134346
:100290007B627B6A9AB27B681A827B689B899BB27D
:1002A0007B627B6A23F4B05323F00C037B623B68D0
:1002B0009A883B681B8913439AB23B685B89134356
:1002C0009BB21A467B6A13437B627B6A9AB27B6855
:1002D0009A817B689B8A9BB27B627B6A23F4407322
:1002E0007B623B689B891A467B6A13437B627B6A0D
:1002F0009AB27B689A8207F10803184600F0EAFE7A
:100300007B68304A934203D07B682F4A934202D1E4
:100310007B693B6201E03B693B627B689B899BB2E6
:100320001BB2002B0CDA3A6A13469B0013449A0066
:100330001A443B681B685B00B2FBF3F3FB610BE004
:100340003A6A13469B0013449A001A443B681B68A0
:100350009B00B2FBF3F3FB61FB691C4AA2FB032386
:100360005B091B017B627B6A1B09642202FB03F3AE
:10037000FA69D31ABB617B689B899BB21BB2002BC5
:100380000CDABB69DB003233104AA2FB03235B09A2
:1003900003F007037A6A13437B620BE0BB691B011E
:1003A00032330A4AA2FB03235B0903F00F037A6A84
:1003B00013437B627B6A9AB27B681A8100BF28373D
:1003C000BD4680BD00100140001401401F85EB5167
:1003D00080B483B000AF78600B46FB70FB78002BD5
:1003E00008D07B689B899BB243F400539AB27B6828
:1003F0009A8107E07B689B899BB223F400539AB2F1
:100400007B689A8100BF0C37BD465DF8047B70475E
:1004100080B483B000AF78600B467B807B88C3F3E9
:1004200008039AB27B689A8000BF0C37BD465DF81E
:10043000047B704780B483B000AF78607B689B8892
:100440009BB2C3F308039BB218460C37BD465DF858
:10045000047B704780B485B000AF78600B467B802A
:100460000023FB737B681B889AB27B8813409BB286
:10047000002B02D00123FB7301E00023FB73FB7B05
:1004800018461437BD465DF8047B704780B582B0CE
:1004900000AF0346FB71FA790C4913469B001344E5
:1004A0009B000B441B68002B0AD0FA7907491346BE
:1004B0009B0013449B000B441B689847034600E0D5
:1004C000042318460837BD4680BD00BF0000002049
:1004D00080B582B000AF0346FB71FA790D4913462F
:1004E0009B0013449B000B4404331B68002B0BD070
:1004F000FA79084913469B0013449B000B440433CC
:100500001B689847034600E0042318460837BD4699
:1005100080BD00BF0000002080B584B000AFB9608E
:100520007A603B600346FB733B68002B01D10423D8
:100530001AE0FA7B0E4913469B0013449B000B44C0
:1005400010331B68002B0ED0FA7B094913469B0021
:1005500013449B000B4410331B683A687968B868F1
:100560009847034600E0042318461037BD4680BD77
:100570000000002080B584B000AFB9607A603B60B5
:100580000346FB733B68002B01D104231AE0FA7B7E
:100590000E4913469B0013449B000B440C331B680D
:1005A000002B0ED0FA7B094913469B0013449B0095
:1005B0000B440C331B683A687968B868984703465F
:1005C00000E0042318461037BD4680BD000000201F
:1005D00080B582B000AF03463A60FB710B46BB7139
:1005E000FA790F4913469B0013449B000B440833D0
:1005F0001B68002B0ED0FA79094913469B0013445F
:100600009B000B4408331B68BA7939681046984739
:10061000034600E0042318460837BD4680BD00BFEE
:100620000000002080B400AF024B1846BD465DF8C4
:10063000047B70470000FC4280B400AF01231846E1
:10064000BD465DF8047B704780B400AF01231846B7
:10065000BD465DF8047B704780B400AF01231846A7
:10066000BD465DF8047B704780B400AF0123184697
:10067000BD465DF8047B704780B400AF0123184687
:10068000BD465DF8047B704780B400AF0123184677
:10069000BD465DF8047B704780B400AF0123184667
:1006A000BD465DF8047B704780B400AF0123184657
:1006B000BD465DF8047B704780B483B000AF03464D
:1006C0003960FB71012318460C37BD465DF8047B89
:1006D000704700BF80B483B000AF03463960FB7140
:1006E000012318460C37BD465DF8047B704700BFF8
:1006F00080B483B000AF03463960FB710123184614
:100700000C37BD465DF8047B704700BF80B483B0F2
:1007100000AF03463960FB71012318460C37BD4614
:100720005DF8047B704700BF80B485B000AFF8600F
:10073000B9607A60012318461437BD465DF8047B22
:10074000704700BF80B485B000AFF860B9607A60D0
:10075000012318461437BD465DF8047B704700BF7F
:1007600080B485B000AFF860B9607A6001231846A4
:100770001437BD465DF8047B704700BF80B485B078
:1007800000AFF860B9607A60012318461437BD469F
:100790005DF8047B704700BF80B485B000AFF8609F
:1007A000B9607A60012318461437BD465DF8047BB2
:1007B000704700BF80B485B000AFF860B9607A6060
:1007C000012318461437BD465DF8047B704700BF0F
:1007D00080B485B000AFF860B9607A600123184634
:1007E0001437BD465DF8047B704700BF80B485B008
:1007F00000AFF860B9607A60012318461437BD462F
:100800005DF8047B704700BF80B582B000AF144B29
:100810007B60144B3B6007E03B681A1D3A607A68C6
:10082000111D796012681A603B680F4A9342F3D336
:100830000E480F494FF000028842B8BF40F8042B21
:10084000FADBDFF83000016841F47001016002F06A
:10085000A9FD00F0B9FA00BF0837BD4680BD00BF52
:1008600024BC000800000020880A0020880A00201C
:10087000FC38012088ED00E080B400AFFEE700BF47
:1008800080B485B000AF7860104B1A687B6802FBBB
:1008900003F3FB600E4B1B680E4A934204D00C4BD3
:1008A0001B680D4A934204D1084B1B68FA68D31A9F
:1008B000FB6000BFFB685A1EFA60002BFAD100BF34
:1008C0001437BD465DF8047B704700BFB438012083
:1008D000C80000200095BA0A00E1F50580B483B095
:1008E00000AF78600B46FB707B681B889BB203F0FF
:1008F0004003002B01D1002325E000BF7B681B894A
:100900009BB203F00303002BF8D07B681B899BB2DA
:1009100003F08003002BF1D1FB789AB27B689A81B7
:1009200000BF7B681B899BB203F00303002BF8D048
:100930007B681B899BB203F08003002BF1D17B689D
:100940009B899BB2DBB218460C37BD465DF8047B31
:10095000704700BF80B584B000AF786001F0D6FE6C
:100960000346FB6008E007F10C030121184601F083
:100970009FFD7B68013B7B607B68002BF3DC00BF45
:100980001037BD4680BD00BF80B5A6B000AF78600F
:100990000023C7F89430002387F89330002387F8AA
:1009A000923002F087FE02F095FE02F08BFE00BF4F
:1009B0000821412002F066FE0346002BF8D002F029
:1009C0009BFE02F08FFE00213348FFF787FF0346AE
:1009D00087F893303BE097F8933087F89230002106
:1009E0002D48FFF77BFF034687F89330D7F8943004
:1009F0007F2B0CDCD7F894305A1CC7F8942007F1F1
:100A00009802134497F8932003F8882C1CE002F016
:100A10007FFE07F10C0307F110018022786805F0D2
:100A200037FE0023C7F89430D7F894305A1CC7F823
:100A3000942007F19802134497F8932003F8882C28
:100A400002F05AFE02F04EFE0A20FFF719FF97F857
:100A50009330D92B14BF01230023DAB297F89230D8
:100A6000FF2B14BF01230023DBB21343DBB2002BA7
:100A7000B1D1D7F89430002B0ADD02F049FED7F847
:100A8000942007F10C0307F11001786805F000FECF
:100A900000BF9837BD4680BD0038004080B584B0A7
:100AA00000AF7860396012223968786805F0A0FCE0
:100AB0000346FB73FB7B002B0DD17B68DB6819467B
:100AC000786806F015F80346FB73FB7B002B02D019
:100AD000786805F0F1FFFB7B18461037BD4680BDF6
:100AE00080B586B000AF78600A4B18680023642296
:100AF000002103F01DFA084A07F10C0307CA83E836
:100B0000070000F07FFA07F10C030C21184600F0F3
:100B1000BFFAE9E76838012004B6000880B582B062
:100B200000AF7860054B186800230022002103F015
:100B3000D9F80348FFF70EFFF4E700BF683801203B
:100B4000C0270900F0B58FB00AAF786001F0DEFD74
:100B50000346FB60164B186800230022002103F0B7
:100B6000C1F8144B186800234FF0FF32002103F046
:100B7000DFF9114E6D4606F110040FCC0FC50FCCF6
:100B80000FC594E8030085E8030096E80F0000F025
:100B900097FF084B186800230022002103F0A2F8F9
:100BA00007F10C034FF47A71184601F081FCD1E78C
:100BB000A8380120AC38012070380120F0B5ADF222
:100BC0007C5D04AF3B1D1860304B18680023642225
:100BD000002103F0ADF907F264434FF48071184629
:100BE00000F0E2FF07F264431946294801F004F8D7
:100BF000284B186800234FF0FF32002103F098F9CA
:100C000007F50C7301222449184605F0ADFB034695
:100C1000002B33D107F10C0320491846FFF73EFFA4
:100C2000034687F8673597F86735002B21D11C4BB1
:100C30001E68731C1A4A1360154B1B6B184606F08E
:100C400003FD04460D46124B1B69184606F0FCFCDA
:100C500002460B4607F10C00CDE90223CDE9004521
:100C60003246104906F0F0F807F10C03184605F07B
:100C700023FF01220849002005F076FB054B186888
:100C800000230022002103F02DF89DE7A838012061
:100C9000703801206438012010B6000814B600082E
:100CA000880A002024B6000880B582B000AF01F0A9
:100CB0002DFD03467B6006F0FBFA0346002B17D0A0
:100CC0000F4B186800230022002103F00BF80D4B96
:100CD000186800234FF0FF32002103F029F900F0DB
:100CE000D9FE084B186800230022002102F0FAFF09
:100CF0003B1D4FF47A71184601F0DAFBDBE700BFC9
:100D00006C380120AC38012080B5ADF58B6D00AF9B
:100D1000174B186800234FF0FF32002103F008F949
:100D200007F5097301221349184605F01DFB034618
:100D3000002B15D13B4613220F49184605F058FBEE
:100D40000346002B07D13B461846FFF71DFE3B46E6
:100D5000184605F0B1FE01220649002005F004FB0B
:100D6000034B186800230022002102F0BBFFCFE7ED
:100D70006438012010B6000830B6000880B582B093
:100D800000AF01F0C3FC03467B6002F01FFC03468A
:100D9000002B10D00B4B186800234FF0FF320021BE
:100DA00003F0C6F800F060FE064B1868002300222E
:100DB000002102F097FF3B1DFA21184601F078FB55
:100DC000E3E700BFAC38012080B5ADF58D6D04AF11
:100DD00003220021012002F0FBFE0246704B1A6044
:100DE0006F4B1B68002B06D06D4B18680023002248
:100DF000002102F077FF03220021012002F0E8FE2B
:100E00000246684B1A60674B1B68002B06D0654B87
:100E1000186800230022002102F064FF0322002151
:100E2000012002F0D5FE02465F4B1A605E4B1B6844
:100E3000002B06D05C4B186800230022002102F032
:100E400051FF012002F006FF0246584B1A600120B4
:100E500002F000FF0246564B1A6000230393002362
:100E60000293002301930323009300234FF47A722B
:100E70005049514801F068FA00230393002302937C
:100E8000002301930223009300234FF47A724B490D
:100E90004B4801F059FA00230393002302930023E7
:100EA00001930223009300234FF47A724549464888
:100EB00001F04AFA002303930023029300230193D5
:100EC0000323009300234FF47A724049404801F015
:100ED0003BFA002303930023029300230193022390
:100EE000009300234FF47A723A493B4801F02CFA00
:100EF0000023039300230293002301930323009311
:100F000000234FF47A723549354801F01DFA002369
:100F100003930023029300230193032300930023F0
:100F20004FF47A722F49304801F00EFA02F03AFA83
:100F300000F03AFC07F5097301222C49184605F028
:100F400013FA0346002B28D13B46132228491846A2
:100F500005F04EFA0346002B08D13B4619462548BA
:100F600005F038FF3B46184605F0A6FD3B46132228
:100F70002149184605F03CFA0346002B08D13B46B0
:100F800019461E4805F026FF3B46184605F094FD1D
:100F900001221B49002005F0E7F901F0EBFAFEE71A
:100FA00068380120A83801206C38012064380120FD
:100FB000AC38012044B60008E10A000850B6000829
:100FC0001D0B00085CB60008450B000868B6000859
:100FD000BD0B000874B60008A90C000880B6000814
:100FE000090D000888B600087D0D000890B60008BD
:100FF00094B60008A8B60008D0B60008E0B600080D
:1010000010B6000880B586B000AF01214FF4002073
:1010100000F02AF90121042000F006F94FF44063A2
:101020003B6102233B750023BB7502237B750023C4
:10103000FB7507F110031946134802F00DF808225A
:101040000A21114802F0AEF808220B210E4802F0E6
:10105000A9F84FF416533B600023FB800023BB81AB
:101060000C237B8100233B810023BB803B46194638
:101070000648FFF7F3F801210448FFF7A9F9002318
:1010800018461837BD4680BD00080240004C00409D
:1010900080B582B000AF7860396010E000BF802179
:1010A0000B48FFF7D7F90346002BF8D07B685A1C92
:1010B0007A601B789BB219460548FFF7A9F93B688F
:1010C0005A1E3A60002BE9D100BF0837BD4680BDEB
:1010D000004C004080B489B000AF78600023BB6151
:1010E00000237B610023FB6102233B610023FB6043
:1010F0000223BB60484B9B6803F00C03BB61BB69D8
:10110000042B07D0082B09D0002B3FD17B68434A22
:101110001A603FE07B68424A1A603BE03E4B5B68E6
:1011200003F480039B0DFB603B4B5B6803F03F03C4
:10113000BB60FB68002B0DD0394ABB68B2FBF3F2F1
:10114000354B596847F6C0730B409B0903FB02F30C
:10115000FB610CE0314ABB68B2FBF3F22E4B5968DD
:1011600047F6C0730B409B0903FB02F3FB612A4B5C
:101170005B6803F440331B0C01335B003B61FA698D
:101180003B69B2FBF3F27B681A6003E07B68234A99
:101190001A6000BF204B9B6803F0F003BB61BB6982
:1011A0001B09BB611F4ABB6913441B78DBB27B611F
:1011B0007B681A687B69DA407B685A60164B9B68CB
:1011C00003F4E053BB61BB699B0ABB61154ABB6971
:1011D00013441B78DBB27B617B685A687B69DA4019
:1011E0007B689A600C4B9B6803F46043BB61BB69EE
:1011F0005B0BBB610B4ABB6913441B78DBB27B61A1
:101200007B685A687B69DA407B68DA6000BF243704
:10121000BD465DF8047B7047003802400024F400AE
:1012200000127A00B400002080B483B000AF786070
:101230000B46FB70FB78002B06D00A49094B1A6B52
:101240007B6813430B6306E00649064B1A6B7B6809
:10125000DB4313400B6300BF0C37BD465DF8047BD6
:10126000704700BF0038024080B483B000AF7860A0
:101270000B46FB70FB78002B06D00A49094B1A6C11
:101280007B6813430B6406E00649064B1A6C7B68C7
:10129000DB4313400B6400BF0C37BD465DF8047B95
:1012A000704700BF0038024080B586B004AF00230D
:1012B0007B6000F03BFA0F4B1B68002B0FD0002324
:1012C000039300230293002301930223009300233E
:1012D0004FF482720849094801F036F878607B685B
:1012E000002B02D102F08CFBFEE77B681846083722
:1012F000BD4680BDBC0A002008B70008F1130008F5
:1013000080B588B000AFF860B9607A603B600023B8
:10131000FB611A4B1B68002B2AD0BB683B617B68C2
:101320007B61FB68BB613B68002B18D101F0BEFDFF
:101330000346022B09D1114B186807F11001002355
:10134000BA6A02F0CFFCF86112E00C4B186807F1A2
:1013500010010023002202F0C5FCF86108E0074BF1
:10136000186807F1100100233A6802F077FDF86170
:10137000FB6918462037BD4680BD00BFBC0A00206F
:1013800080B586B002AF78603960184B1B68DB68A7
:10139000DB68FB60FB680433184601F0D9FFFB688B
:1013A000DB69012B1AD1FB689A697B68D1187B68CD
:1013B0003A68F86800F0A8F80346012B0ED1002324
:1013C000009300237A680021F868FFF799FFB8605E
:1013D000BB68002B02D102F013FBFEE7FB685B6ADF
:1013E000F868984700BF1037BD4680BDB40A00209A
:1013F00080B584B000AF786007F10803184600F0AC
:101400003FF8F860BB681946F86800F003F800F090
:10141000BDF8F1E780B584B000AF7860396001F0C5
:10142000E1F807F10803184600F04EF8F860BB68D1
:10143000002B1DD13B68002B0AD17A68FB689A42C9
:1014400006D801F0DDF8F9687868FFF799FF11E038
:101450000A4B18687A68FB68D31A194602F074FFC1
:1014600001F0CEF80346002B04D102F08BFA01E024
:1014700001F0C6F800BF1037BD4680BDBC0A002091
:1014800080B485B000AF78600E4B1B681B68002BE2
:101490000CBF01230023DBB21A467B681A607B680D
:1014A0001B68002B05D1074B1B68DB681B68FB60C2
:1014B00001E00023FB60FB6818461437BD465DF869
:1014C000047B7047B40A002080B584B000AF786018
:1014D00001F01CF9F8600B4B1B68FA689A4205D2C0
:1014E00000F0CAF87B6801221A6002E07B680022E3
:1014F0001A60044AFB681360FB6818461037BD4643
:1015000080BD00BFC00A002080B586B000AFF86083
:10151000B9607A603B6000237B61FB68BA685A60FF
:10152000FB68FA681A61BA687B689A4212D87A68CE
:101530003B68D21AFB689B699A4202D301237B6104
:101540001BE0104B1A68FB6804331946104601F083
:10155000C5FE12E07A683B689A4206D2BA683B68D8
:101560009A4202D301237B6107E0074B1A68FB68AC
:1015700004331946104601F0B1FE7B69184618374E
:10158000BD4680BDB80A0020B40A002080B58AB0EC
:1015900002AF60E0BB68B3F1FF3F5CD03B69FB6129
:1015A000FB695B69002B04D0FB690433184601F02A
:1015B000CFFE3B1D1846FFF787FFB861BB68032BC2
:1015C00048D801A252F823F0D91500085716000890
:1015D000251600084D160008FA68FB699B69D118AA
:1015E000FB68BA69F869FFF78FFF0346012B32D118
:1015F000FB695B6AF8699847FB69DB69012B2AD1B3
:10160000FA68FB699B691A440023009300230021B8
:10161000F869FFF775FE78617B69002B1BD102F03A
:10162000EFF9FEE7FA68FB699A61FB699B69002B99
:1016300002D102F0E5F9FEE7FB699A69BB69D118AE
:10164000BB69BA69F869FFF75FFF04E0F86905F064
:1016500089FE00E000BF074B186807F1080100236E
:10166000002202F065FC0346002B93D100BF203717
:10167000BD4680BDBC0A002080B588B002AF3DE009
:10168000284B1B68DB681B687B61264B1B68DB688B
:10169000DB683B613B690433184601F059FE3B6946
:1016A0005B6A386998473B69DB69012B26D13B6946
:1016B0009A697B691344FB60FA687B699A420ED988
:1016C0003B69FA685A603B693A691A61154B1A68B6
:1016D0003B6904331946104601F000FE0EE000237A
:1016E000009300237A6900213869FFF709FEB8608A
:1016F000BB68002B02D102F083F9FEE7094B1B689F
:101700001B68002BBCD1074B1B687B60064B1B681A
:10171000044A1360044A7B68136000BF1837BD4653
:1017200080BD00BFB40A0020B80A002080B500AF19
:1017300002F03AF9164B1B68002B24D1154801F032
:101740007BFD154801F078FD144B124A1A60144BCA
:10175000114A1A6000220C210A2002F039FA0246CE
:101760000B4B1A600A4B1B68002B02D102F048F9A0
:10177000FEE7074B1B68002B05D0054B1B6809498A
:10178000184602F0B9FD02F021F900BF80BD00BF8C
:10179000BC0A00208C0A0020A00A0020B40A002005
:1017A000B80A002010B7000880B500AF00F0B6F905
:1017B00000F0DEF800F0A0FD00BF184680BD00BFBD
:1017C00080B485B000AF7860084611461A460346DB
:1017D000FB700B46BB7013467B700023FB6000233D
:1017E000BB60FB78092B23D97B68DB68FB60FB7847
:1017F000A3F10A0213465B001344072202FA03F323
:10180000BB60BB68DB43FA681340FB607978FB7808
:10181000A3F10A0213465B00134401FA03F3BB6011
:10182000FA68BB681343FB607B68FA68DA601EE005
:101830007B681B69FB60FA7813465B001344072240
:1018400002FA03F3BB60BB68DB43FA681340FB603A
:101850007978FA7813465B00134401FA03F3BB600E
:10186000FA68BB681343FB607B68FA681A61BB784F
:10187000062B21D87B685B6BFB60BB785A1E134636
:101880009B0013441F2202FA03F3BB60BB68DB43D7
:10189000FA681340FB60F978BB785A1E13469B0028
:1018A000134401FA03F3BB60FA68BB681343FB609F
:1018B0007B68FA685A6347E0BB780C2B21D87B68B9
:1018C0001B6BFB60BB78DA1F13469B0013441F227F
:1018D00002FA03F3BB60BB68DB43FA681340FB60AA
:1018E000F978BB78DA1F13469B00134401FA03F31F
:1018F000BB60FA68BB681343FB607B68FA681A63D5
:1019000022E07B68DB6AFB60BB78A3F10D02134623
:101910009B0013441F2202FA03F3BB60BB68DB4346
:10192000FA681340FB60F978BB78A3F10D02134607
:101930009B00134401FA03F3BB60FA68BB681343CE
:10194000FB607B68FA68DA6200BF1437BD465DF859
:10195000047B704780B483B000AF78607B68DB6C39
:101960009BB218460C37BD465DF8047B704700BF3C
:1019700080B588B000AF01210420FFF775FC01217C
:101980000820FFF771FC01214FF48010FFF74CFC99
:101990004FF48053BB6102233B770023BB770223C4
:1019A0007B770023FB7707F1180319461B4801F0EA
:1019B00053FB08220C21194801F0F4FB04233B617E
:1019C00002233B750023BB7502237B750023FB7547
:1019D00007F110031946124801F03EFB08220221CC
:1019E0000F4801F0DFFB4FF496433B600023FB8080
:1019F0000023BB810C237B8100233B810023BB8020
:101A00003B4619460748FEF729FC01210548FEF729
:101A1000DFFC002318462037BD4680BD0008024089
:101A2000000C02400050004080B584B000AF7860E8
:101A300039600023FB600BE0FB687A6813441B7875
:101A40009BB219460748FEF7E3FCFB680133FB60D5
:101A5000FA683B689A42EFDB3B6818461037BD4690
:101A600080BD00BF0050004080B584B000AFFF23B0
:101A70003B71AA237B71AD23BB71ED23FB713B1D31
:101A800004211846FFF7D0FF042318461037BD463F
:101A900080BD00BF80B584B000AFFF233B71AA2397
:101AA0007B71CD23BB71ED23FB713B1D04211846D7
:101AB000FFF7BAFF042318461037BD4680BD00BFAC
:101AC00080B588B000AF7860FF233B73AA237B7397
:101AD000CD23BB737B6893F82430FB737B6893F84A
:101AE00025303B747B68DB787B747B681B79BB7427
:101AF0007B685B79FB747B681B783B757B685B78E4
:101B00007B75ED23BB7507F10C030A211846FFF71F
:101B10008BFF0A2318462037BD4680BD80B586B0AE
:101B200000AF01214FF40020FFF79EFB01210420AC
:101B3000FFF77AFB4FF440633B6102233B750023C0
:101B4000BB7502237B750023FB7507F11003194653
:101B5000134801F081FA08220A21114801F022FB02
:101B600008220B210E4801F01DFB4FF416533B6079
:101B70000023FB800023BB810C237B8100233B815E
:101B80000023BB803B4619460648FEF767FB012150
:101B90000448FEF71DFC002318461837BD4680BDDB
:101BA00000080240004C004090B585B000AF78605E
:101BB00039600023FB6013E000BF20210D48FEF7D1
:101BC00049FC0346002BF8D0FB687A68D418094812
:101BD000FEF730FC0346DBB22370FB680133FB6089
:101BE000FA683B689A42E7DB002318461437BD4683
:101BF00090BD00BF004C004090B591B000AF786040
:101C00003960A749386806F039FEB863BB6B002B12
:101C100002D14FF0FF338AE22A21B86B06F0B8FBFD
:101C200078637B6B002B02D14FF0FF337FE2BB6BFD
:101C3000FB632C21F86B06F0ABFB03460133FB631F
:101C4000F86B05F0D7FF03460C461846214605F011
:101C500081FF03463B63D7ED0C7AFCEEE77A17EE83
:101C6000903AFB62FB6A8F4AA2FB03235B0BDAB25A
:101C70007B681A70FA6A8B4BA3FB02135B0B42F270
:101C8000107101FB03F3D31A874AA2FB03235B09FC
:101C9000DAB27B685A70FA6A834BA3FB02135B09C2
:101CA000642101FB03F3D31ADAB27B689A70FB6AF2
:101CB00007EE903AF8EE677A97ED0C7A77EE677A4E
:101CC0009FED7A7A67EE877AFDEEE77A17EE902A33
:101CD0007B689A602C21F86B06F05AFB03460133AF
:101CE000FB63FB6B1B78412B04D17B68412283F89B
:101CF00027200BE0FB6B1B78562B04D17B68562208
:101D000083F8272002E04FF0FF3310E22C21F86B1C
:101D100006F03EFB03460133FB63FB6B1B782C2B69
:101D200000F0888007F10C030222F96B184606F0D8
:101D300015FCFB6B0233FB630023BB7307F10C0341
:101D4000184605F05BFF0246594B03FB02F3BB62EA
:101D500007F10C030222F96B184606F0FFFBFB6B40
:101D60000333FB6307F10C0302330422F96B1846BB
:101D700006F0F4FB0023BB7407F10C03184605F0D2
:101D80003DFF0246322303FB02F34A4A82FB031261
:101D9000DB17D31A7B62BA6A7B6A1A447B689A6241
:101DA000BB6A454A82FB03125213DB17D31A07EEB4
:101DB000903AB8EEE77A7B6A07EE903AF8EEE77A67
:101DC000DFED3E6A67EEA67A77EE277A7B68C3ED91
:101DD000037A7B6893ED037A7B68D3ED036A9FED0A
:101DE000386AC6EE867AFDEEE77A17EE902A64230B
:101DF00003FB02F307EE903AF8EEE77A37EE677AE4
:101E0000DFED306AC7EE267A7B68C3ED0C7A7B681B
:101E100093ED0C7A7B68D3ED036A9FED296AC6EED9
:101E2000867AFDEEE77AF8EEE77A77EE277A7B6836
:101E3000C3ED0C7A2C21F86B06F0AAFA03460133A5
:101E4000FB63FB6B1B782C2B3ED0FB6B1B78532B5F
:101E500007D17B68D3ED0C7AF1EE677A7B68C3ED2E
:101E60000C7AFB6B1B784E2B04D17B684E2283F8D7
:101E7000242029E0FB6B1B78532B04D17B68532271
:101E800083F8242020E0FB6B1B782C2B04D17B688B
:101E9000002283F8242017E04FF0FF3347E100BF12
:101EA00018B700085917B7D11F85EB5100007A44C5
:101EB000809698005655555589B5F8149C53C936E7
:101EC0000000C842000070422C21F86B06F060FA56
:101ED00003460133FB63FB6B1B782C2B00F08880DF
:101EE00007F10C030322F96B184606F037FBFB6B76
:101EF0000333FB630023FB7307F10C03184605F063
:101F00007DFE02468C4B03FB02F33B6207F10C03A0
:101F10000222F96B184606F021FBFB6B0333FB63CF
:101F200007F10C0302330422F96B184606F016FB86
:101F30000023BB7407F10C03184605F05FFE024650
:101F4000322303FB02F37D4A82FB0312DB17D31A11
:101F5000FB613A6AFB691A447B68DA623B6A784A39
:101F600082FB03125213DB17D31A07EE903AB8EE36
:101F7000E77AFB6907EE903AF8EEE77ADFED716AEF
:101F800067EEA67A77EE277A7B68C3ED047A7B68E2
:101F900093ED047A7B68D3ED046A9FED6B6AC6EE1D
:101FA000867AFDEEE77A17EE902A642303FB02F3AC
:101FB00007EE903AF8EEE77A37EE677ADFED636A7C
:101FC000C7EE267A7B68C3ED0D7A7B6893ED0D7AB8
:101FD0007B68D3ED046A9FED5C6AC6EE867AFDEEFF
:101FE000E77AF8EEE77A77EE277A7B68C3ED0D7A29
:101FF0002C21F86B06F0CCF903460133FB63FB6B35
:102000001B782C2B29D0FB6B1B78572B07D17B68B7
:10201000D3ED0D7AF1EE677A7B68C3ED0D7AFB6B39
:102020001B78572B04D17B68572283F8252014E0B6
:10203000FB6B1B78452B04D17B68452283F8252058
:102040000BE0FB6B1B782C2B04D17B68002283F800
:10205000252002E04FF0FF3369E02C21F86B06F0F9
:1020600097F903460133FB63FB6B1B782C2B0BD0DA
:10207000F86B05F0BFFD03460C461846214605F0F7
:1020800069FD02467B685A612C21F86B06F080F9E5
:1020900003460133FB63FB6B1B782C2B0BD0F86BD7
:1020A00005F0A8FD03460C461846214605F052FDF2
:1020B00002467B689A612C21F86B06F069F90346A9
:1020C0000133FB63FB6B1B782C2B2FD0F86B05F0D7
:1020D00091FD03460C461846214605F01BFD0346BC
:1020E000BB61BB691A4AA2FB03235B0BDAB27B68B4
:1020F0005A71BA69164BA3FB02135B0B42F21071C3
:1021000001FB03F3D31A134AA2FB03235B09DAB2E0
:102110007B681A71BA690F4BA3FB02135B09642138
:1021200001FB03F3D31ADAB27B68DA700123184695
:102130004437BD4690BD00BF809698005655555512
:1021400089B5F8149C53C9360000C842000070429B
:102150005917B7D11F85EB5180B483B000AF034648
:102160003960FB7197F90730002B0BDA0D49FB79C9
:1021700003F00F03043B3A68D2B21201D2B20B440F
:102180001A7609E0084997F907303A68D2B2120185
:10219000D2B20B4483F8002300BF0C37BD465DF874
:1021A000047B704700ED00E000E100E080B582B004
:1021B00000AF78607B68B3F1807F01D3012311E029
:1021C0000A4A7B6823F07F43013B53600F214FF0A5
:1021D000FF30FFF7C1FF054B00229A60034B072237
:1021E0001A60002318460837BD4680BD10E000E0A5
:1021F00080B582B000AF3C4B1B6801333A4A136094
:102200003A4B1B68002B04D0384B1B68013B374A04
:10221000136000F08DFA0346002B03D0344B4FF0CF
:1022200080521A60AFF300800023FB7152E0FB790B
:10223000304A9B0013445B68002B48D0FB792D4A41
:102240009B0013445B681B7B002B40D0FB79294A21
:102250009B0013445B689B68002B38D0FB79254AB0
:102260009B0013445B689A68013A9A60FB79214AA3
:102270009B0013445B689B68002B28D1FB791D4AA7
:102280009B0013445B681A69FB791A499B000B4455
:102290005B685B6918469047FB79164A9B001344BC
:1022A0005A68FB7913499B000B445B681B68936079
:1022B000FB79104A9B0013445B685B68002B06D1D6
:1022C000FB790C4A9B0013445B6800221A73FB796C
:1022D0000133FB71074B1B78FA799A42A7D300BFF1
:1022E0000837BD4680BD00BFC80A0020CC0A0020C8
:1022F00004ED00E0D40A002080B500AF0D4B1B6850
:102300000D4AA2FB03239B091846FFF74FFF034624
:10231000002B00D0FEE7074B1B689B09074AA2FB76
:1023200003239B0A064A1360064B01221A7000BF62
:1023300080BD00BFC8000020D34D62101791650218
:10234000B4380120D00A002080B58AB002AFF8600E
:10235000B9603B601346FB80FB68002B02D101F0A3
:102360004FFBFEE7BB6A042B02D901F049FBFEE7F5
:10237000FB88396B184600F021FDB861BB69002B62
:1023800072D0BB691A6BFB8803F18043013B9B0051
:1023900013447B617B6923F007037B617B6903F056
:1023A0000703002B02D001F02BFBFEE7FB88009314
:1023B0007B6BBA6AB968B86900F004FC3A68F968DE
:1023C000786901F013FA0246BB691A60FB6A002BB8
:1023D00002D0FB6ABA691A6001F0E6FA2E4B1B685C
:1023E00001332D4A13602D4B1B68002B09D12B4A5A
:1023F000BB691360284B1B68012B0FD100F02CFC2C
:102400000CE0274B1B68002B08D1244B1B68DA6AB1
:10241000BB6A9A4202D8214ABB691360214B1B68F0
:102420000133204A13601F4B1A68BB691A64BB69E9
:10243000DA6A1D4B1B689A4203D9BB69DB6A1A4AE8
:102440001360BB69DA6A13469B0013449B00174A6A
:102450001A44BB6904331946104600F01BFF0123E0
:10246000FB6101F0B3FA02E04FF0FF33FB61FB695F
:10247000012B0BD10A4B1B68002B07D0074B1B68A5
:10248000DA6ABB6A9A4201D201F07CFAFB6918460B
:102490002037BD4680BD00BFC40B0020EC0A0020E1
:1024A000D00B0020E40B0020CC0B0020F00A002011
:1024B00080B586B000AF7860396000237B617B68AF
:1024C000002B02D101F09CFAFEE73B68002B02D101
:1024D00001F096FAFEE7244B1B68002B02D001F0B6
:1024E0008FFAFEE700F07EF8204B1B683B617B68AB
:1024F0001A683B681344FB607B681A683B699A4220
:102500000BD97B681A68FB689A4211D9FA683B6953
:102510009A420DD901237B610AE07B681A68FB6847
:102520009A4203D8FA683B699A4201D901237B6138
:102530007B68FA681A607B69002B08D00C4B1B681B
:102540000433184600F004FFF86800F001FC00F0C6
:1025500057F8B860BB68002B01D101F013FA00BF37
:102560001837BD4680BD00BFD40B0020C80B00202B
:10257000EC0A002080B586B004AF0023039300234B
:102580000293002301930023009300238222114928
:102590001148FFF7D9FE78607B68012B02D1FEF766
:1025A00083FE78607B68012B0AD101F029FA0B4B7E
:1025B00001221A600A4B00221A6001F07BF905E043
:1025C0007B68002B02D101F01BFAFEE700BF083741
:1025D000BD4680BD20B70008A52B0008D00B002009
:1025E000C80B002080B400AF044B1B680133034AC2
:1025F000136000BFBD465DF8047B7047D40B00201C
:1026000080B582B000AF00237B60384B1B68002B85
:1026100002D101F0F5F9FEE701F0C6F9334B1B6872
:10262000013B324A1360314B1B68002B56D1304BB3
:102630001B68002B52D02FE02E4BDB68DB683B6021
:102640003B681833184600F083FE3B680433184695
:1026500000F07EFE3B68DA6A274B1B689A4203D97A
:102660003B68DB6A244A13603B68DA6A13469B00C6
:1026700013449B00214A1A443B6804331946104610
:1026800000F008FE3B68DA6A1D4B1B68DB6A9A4261
:1026900002D31C4B01221A60164B1B68002BCBD1B6
:1026A000194B1B68002B11D00CE000F041F80346D9
:1026B000002B02D0134B01221A60134B1B68013B05
:1026C000114A1360104B1B68002BEED10D4B1B6899
:1026D000012B03D101237B6001F054F901F076F95D
:1026E0007B6818460837BD4680BD00BFD40B00206C
:1026F000C40B0020840B0020CC0B0020F00A00202B
:10270000EC0A0020DC0B0020D80B002080B582B042
:1027100000AF01F049F9054B1B687B6001F056F9E9
:102720007B6818460837BD4680BD00BFC80B002037
:1027300080B586B000AF00237B614E4B1B68002B39
:1027400040F087804C4B1B6801334B4A13604A4B67
:102750001B683B613B69002B18D1484B1B681B6809
:10276000002B02D001F04CF9FEE7444B1B68FB60E4
:10277000434B1B68414A1360414AFB681360414B5D
:102780001B6801333F4A136000F05AFB3E4B1B6845
:102790003A699A424ED3394B1B681B68002B01D112
:1027A000012300E00023002B04D0374B4FF0FF3211
:1027B0001A603FE0314B1B68DB68DB68BB60BB68BD
:1027C0005B687B603A697B689A4203D22E4A7B68D9
:1027D00013602FE0BB680433184600F0B9FDBB68F6
:1027E0009B6A002B04D0BB681833184600F0B0FD7C
:1027F000BB68DA6A254B1B689A4203D9BB68DB6A5F
:10280000224A1360BB68DA6A13469B0013449B009C
:102810001F4A1A44BB6804331946104600F03AFDBB
:10282000BB68DA6A1B4B1B68DB6A9A42B3D301238D
:102830007B61B0E7174B1B68DA6A154913469B00AA
:1028400013449B000B441B68012B07D901237B61B8
:1028500004E0114B1B6801330F4A13600F4B1B68D8
:10286000002B01D001237B617B6918461837BD46D8
:1028700080BD00BFD40B0020C80B00207C0B0020C3
:10288000800B0020E00B0020C4000020CC0B0020B7
:10289000F00A0020EC0A0020D80B0020DC0B0020FE
:1028A00080B582B000AF224B1B68002B03D0214BB8
:1028B00001221A6038E01F4B00221A600BE01E4B09
:1028C0001B68002B02D101F09BF8FEE71A4B1B6836
:1028D000013B194A1360184B1A68184913469B00AC
:1028E00013449B000B441B68002BE8D0124B1A6862
:1028F00013469B0013449B00104A13447B607B6883
:102900005B685A687B685A607B685A687B680833E2
:102910009A4204D17B685B685A687B685A607B681E
:102920005B68DB68064A136000BF0837BD4680BDA0
:10293000D40B0020DC0B0020CC0B0020F00A002080
:10294000EC0A002080B584B000AF786039607B6805
:10295000002B02D101F054F8FEE7124B1B6818332C
:102960001946786800F0BAFC0E4B1B680433184611
:1029700000F0EEFC3B68B3F1FF3F07D1094B1B6849
:1029800004331946084800F085FC07E0074B1A6835
:102990003B681344FB60F86800F0DAF900BF1037B9
:1029A000BD4680BDEC0A0020B00B0020C80B002003
:1029B00080B584B000AF786039607B68002B02D1AD
:1029C00001F01EF8FEE70C4B1B68183319467868B7
:1029D00000F060FC084B1B680433184600F0B8FC9C
:1029E000064B1A683B681344FB60F86800F0B0F9C6
:1029F00000BF1037BD4680BDEC0A0020C80B002088
:102A000080B584B000AF78607B68DB68DB68BB6052
:102A1000BB68002B02D100F0F3FFFEE7BB68183360
:102A2000184600F095FC1E4B1B68002B1DD1BB689F
:102A30000433184600F08CFCBB68DA6A194B1B683B
:102A40009A4203D9BB68DB6A164A1360BB68DA6A2C
:102A500013469B0013449B00134A1A44BB6804337B
:102A60001946104600F016FC05E0BB6818331946FD
:102A70000E4800F00FFCBB68DA6A0D4B1B68DB6A7E
:102A80009A4205D90123FB600A4B01221A6001E03A
:102A90000023FB60FB6818461037BD4680BD00BFB1
:102AA000D40B0020CC0B0020F00A0020840B002067
:102AB000EC0A0020DC0B002080B582B000AF78600B
:102AC0007B68002B02D100F09BFFFEE7054B1A68E4
:102AD0007B681A60044B1A687B685A6000BF08372D
:102AE000BD4680BDE00B0020C80B002080B584B03F
:102AF00000AF786039607B68002B02D100F080FF66
:102B0000FEE73B68002B02D100F07AFFFEE700F001
:102B10004BFF1C4B1B68BB603B681B68B3F1FF3F5E
:102B200002D10023FB6026E07B681A68164B1B6805
:102B30009A4207D07B685A68BB689A4202D8012340
:102B4000FB6018E07B685B68BA68D21A3B681B6858
:102B50009A420ED23B681A687B685968BB68CB1AE8
:102B60001A443B681A607868FFF7A6FF0023FB60F1
:102B700001E00123FB6000F029FFFB6818461037D5
:102B8000BD4680BDC80B0020E00B002080B400AF24
:102B9000034B01221A6000BFBD465DF8047B7047FD
:102BA000DC0B002080B582B000AF786000F094F8B4
:102BB000034B1B68012BF9D900F0E4FEF6E700BFD8
:102BC000F00A002080B586B000AFF860B9607A6086
:102BD0003B6000237B6112E0BA687B69134419787B
:102BE000FA687B69134434330A461A70BA687B6901
:102BF00013441B78002B06D07B6901337B617B6912
:102C0000092BE9D900E000BFFB68002283F83D20D2
:102C10007B68042B01D904237B60FB687A68DA6245
:102C2000FB687A689A64FB680433184600F024FB5A
:102C3000FB681833184600F01FFBFB68FA681A613E
:102C40007B68C3F10502FB689A61FB68FA685A6207
:102C500000BF1837BD4680BD80B582B000AF0023ED
:102C60007B600CE07A6813469B0013449B00124A79
:102C70001344184600F0E0FA7B6801337B607B6800
:102C8000042BEFD90D4800F0D7FA0D4800F0D4FA24
:102C90000C4800F0D1FA0C4800F0CEFA0B4800F0D6
:102CA000CBFA0B4B054A1A600A4B054A1A6000BF63
:102CB0000837BD4680BD00BFF00A0020540B00203D
:102CC000680B0020840B0020980B0020B00B002024
:102CD0007C0B0020800B002080B582B000AF28E084
:102CE000FFF780FC174B1B68002B0CBF0123002350
:102CF000DBB27B60FFF784FC7B68002B19D100F00E
:102D000053FE104BDB68DB683B603B6804331846BE
:102D100000F01EFB0C4B1B68013B0B4A13600B4B76
:102D20001B68013B094A136000F050FE386800F050
:102D300077F8064B1B68002BD2D100BF0837BD4681
:102D400080BD00BF980B0020C40B0020AC0B0020FE
:102D500080B582B000AF7860134B1B687A685A6008
:102D6000124B1B687A689A4209D2114B1A680E4BB3
:102D70001B6804331946104600F0B0FA10E00D4B02
:102D80001A68094B1B6804331946104600F0A6FA6E
:102D9000094B1B687A689A4202D2074A7B68136023
:102DA00000BF0837BD4680BDEC0A0020C80B0020DC
:102DB000800B00207C0B0020C400002080B584B074
:102DC00000AF03463960FB804C2004F085FAF860C0
:102DD000FB68002B1ED03B68002B06D1FB889B00B4
:102DE000184604F079FA034600E03B68FA6813637A
:102DF000FB681B6B002B05D1F86804F0B3FA0023C5
:102E0000FB6007E0FB68186BFB889B001A46A52156
:102E100005F05AFAFB6818461037BD4680BD00BF62
:102E200080B582B000AF78607B681B6B184604F0F9
:102E300099FA786804F096FA00BF0837BD4680BD5D
:102E400080B483B000AF0F4B1B681B68002B01D10F
:102E5000012300E00023002B04D00B4B4FF0FF3286
:102E60001A6008E0074B1B68DB68DB687B607B68E7
:102E70005B68054A136000BF0C37BD465DF8047BF4
:102E8000704700BF7C0B0020C400002080B483B0DA
:102E900000AF054B1B687B607B6818460C37BD464E
:102EA0005DF8047B704700BFEC0A002080B483B05B
:102EB00000AF0B4B1B68002B02D101237B6008E0A5
:102EC000084B1B68002B02D102237B6001E000232A
:102ED0007B607B6818460C37BD465DF8047B704705
:102EE000D00B0020D40B002080B584B000AF7860F8
:102EF0007B68FB607B68002B4AD0FB68DA6A264B54
:102F00001B68DB6A9A4243D2FB689B69002B06DB95
:102F1000214B1B68DB6AC3F10502FB689A61FB6801
:102F20005969FB68DA6A13469B0013449B001B4AED
:102F30001344994201D1012300E00023002B22D049
:102F4000FB680433184600F003FA134B1B68DA6A77
:102F5000FB68DA62FB68DA6A114B1B689A4203D994
:102F6000FB68DB6A0E4A1360FB68DA6A13469B0053
:102F700013449B00094A1A44FB680433194610465F
:102F800000F088F904E0044B1B68DA6AFB68DA6237
:102F900000BF1037BD4680BDEC0A0020F00A0020BB
:102FA000CC0B002080B584B000AF78607B68FB60FC
:102FB0007B68002B30D0FB68DA6AFB689B6C9A4216
:102FC0002AD0FB680433184600F0C2F9FB689A6CFB
:102FD000FB68DA62FB689B69002B05DBFB68DB6A38
:102FE000C3F10502FB689A61FB68DA6A0C4B1B6847
:102FF0009A4203D9FB68DB6A094A1360FB68DA6A04
:1030000013469B0013449B00064A1A44FB68043392
:103010001946104600F03EF900BF1037BD4680BD8E
:10302000CC0B0020F00A002080B582B000AF7860A1
:10303000786804F0E7FD034618460837BD4680BDB2
:1030400080B582B000AF7860786804F0E3FD00BF1F
:103050000837BD4680BD00BF80B487B000AF786040
:10306000396000237B6100233B610023FB60002368
:103070007B6176E001227B6902FA03F33B613B68E6
:103080001A683B691340FB60FA683B699A4265D154
:103090007B681A687B695B00032101FA03F3DB4359
:1030A0001A407B681A607B681A683B681B7919466E
:1030B0007B695B0001FA03F31A437B681A603B6883
:1030C0001B79012B03D03B681B79022B2ED17B6827
:1030D0009A687B695B00032101FA03F3DB431A4022
:1030E0007B689A607B689A683B685B7919467B6964
:1030F0005B0001FA03F31A437B689A607B685A68A5
:103100007B699BB2194601238B40DB431A407B68E5
:103110005A607B685B683A68927911467A6992B224
:1031200001FA02F292B21A437B685A607B68DA684D
:103130007B699BB25B00032101FA03F3DB431A4076
:103140007B68DA607B68DA683B68DB7919467B6903
:103150005B0001FA03F31A437B68DA607B69013391
:103160007B617B690F2B85D900BF1C37BD465DF89D
:10317000047B704780B483B000AF78600B467B80DF
:1031800013467B707B78002B03D07B687A881A8388
:1031900002E07B687A885A8300BF0C37BD465DF831
:1031A000047B704780B485B000AF78600B467B80AD
:1031B00013467B700023FB600023BB607A787B881A
:1031C00003F007039B0002FA03F3FB607B88DB0834
:1031D0009BB218467B88DB089BB21A467B68083294
:1031E00053F822207B8803F007039B000F2101FA8C
:1031F00003F3DB4302EA03017B6800F1080243F8B2
:1032000022107B88DB089BB21A467B68083253F891
:103210002220FB681343BB607B88DB089BB21A4605
:103220007B680832B96843F8221000BF1437BD46E6
:103230005DF8047B704700BF80B483B000AF786056
:103240007B6803F108027B685A607B684FF0FF32AD
:103250009A607B6803F108027B68DA607B6803F19F
:1032600008027B681A617B6800221A6000BF0C3775
:10327000BD465DF8047B704780B483B000AF7860D2
:103280007B6800221A6100BF0C37BD465DF8047BE5
:10329000704700BF80B485B000AF786039607B684C
:1032A0005B68FB603B68FA685A60FB689A683B6839
:1032B0009A60FB689B683A685A60FB683A689A6053
:1032C0003B687A681A617B681B685A1C7B681A60C5
:1032D00000BF1437BD465DF8047B704780B485B0ED
:1032E00000AF786039603B681B68BB60BB68B3F1B6
:1032F000FF3F03D17B681B69FB600CE07B680833F0
:10330000FB6002E0FB685B68FB60FB685B681A6857
:10331000BB689A42F6D9FB685A683B685A603B68BA
:103320005B683A689A603B68FA689A60FB683A683A
:103330005A603B687A681A617B681B685A1C7B6814
:103340001A6000BF1437BD465DF8047B704700BFAC
:1033500080B485B000AF78607B681B69FB607B68D8
:103360005B687A6892689A607B689B687A68526842
:103370005A60FB685A687B689A4203D17B689A68F6
:10338000FB685A607B6800221A61FB681B685A1E42
:10339000FB681A60FB681B6818461437BD465DF869
:1033A000047B704780B500AF164A164BD3F88830BF
:1033B00043F47003C2F88830134A134B1B6843F080
:1033C00001031360104B00229A600F4A0E4B1B68DA
:1033D00023F0847323F4803313600B4B0B4A5A6041
:1033E000094A094B1B6823F480231360064B002213
:1033F000DA6000F00DF8034B4FF000629A6000BFF6
:1034000080BD00BF00ED00E0003802401030002415
:1034100080B483B000AF00237B6000233B60364A5A
:10342000354B1B6843F480331360334B1B6803F444
:1034300000333B607B6801337B603B68002B03D12A
:103440007B68B3F5A06FF0D12B4B1B6803F40033FE
:10345000002B02D001233B6001E000233B603B686E
:10346000012B42D1244A244B1B6C43F0805313643C
:10347000224A224B1B6843F4804313601E4A1E4BB2
:103480009B6893601C4A1C4B9B6843F40043936009
:10349000194A194B9B6843F4A0539360164B184A82
:1034A0005A60154A144B1B6843F08073136000BFC9
:1034B000114B1B6803F00073002BF9D0114B40F245
:1034C00005621A600C4A0C4B9B6823F0030393605F
:1034D000094A094B9B6843F00203936000BF064B07
:1034E0009B6803F00C03082BF9D100BF0C37BD46D5
:1034F0005DF8047B704700BF003802400070004058
:1035000008544007003C024080B485B000AF7860AA
:103510000B4B1B68002B02D1094B0A4A1A60084B5F
:103520001B68FB60064B1A687B681344044A1360EF
:10353000FB6818461437BD465DF8047B704700BF32
:10354000E80B00200041012080B582B000AF1423B9
:10355000012202210648FEF733F90548FEF7FAF981
:1035600003467B607B6818460837BD4680BD00BFB8
:103570000020014080B582B000AF14230122042155
:103580000648FEF71DF90548FEF7E4F903467B609F
:103590007B6818460837BD4680BD00BF002001404B
:1035A00080B582B000AF1423012208210648FEF73F
:1035B00007F90548FEF7CEF903467B607B6818469D
:1035C0000837BD4680BD00BF0020014080B584B0F3
:1035D00000AFFFF7B9FFF860FFF7CCFFB860FFF767
:1035E000DFFF7860FB68092B03DDFB68B3F57A7FAA
:1035F00001DD012306E0BB68B3F57A7F01DD02231C
:1036000000E0002318461037BD4680BD80B483B06B
:1036100000AF78600B46FB707B681B889BB203F0A1
:103620004003002B01D1002325E000BF7B681B89EC
:103630009BB203F00303002BF8D07B681B899BB27D
:1036400003F08003002BF1D1FB789AB27B689A815A
:1036500000BF7B681B899BB203F00303002BF8D0EB
:103660007B681B899BB203F08003002BF1D17B6840
:103670009B899BB2DBB218460C37BD465DF8047BD4
:10368000704700BF80B584B000AF03460A46FB71A7
:103690001346BB71FB79184600F096F80346FB739E
:1036A000FA7BBB791340FB73FB7B18461037BD4692
:1036B00080BD00BF80B500AF0121042000F06EF88E
:1036C00000BF80BD80B500AF0221042000F066F885
:1036D00000BF80BD80B500AF0121042000F05EF87E
:1036E00000BF80BD80B500AF3C210248FFF78EFFD0
:1036F00000BF80BD0038004080B500AF00224FF40D
:1037000080510248FFF736FD00BF80BD0004024033
:1037100080B500AF01224FF480510248FFF72AFD27
:1037200000BF80BD0004024080B582B000AF786069
:103730003960FFF7E1FF7B68DBB219460748FFF706
:1037400065FF3B68DBB219460448FFF75FFFFFF7F0
:10375000DFFF012318460837BD4680BD0038004012
:1037600080B584B000AF78600023FB73FFF7C4FF1F
:103770007B68DBB219460848FFF748FF002106487E
:10378000FFF744FF0346FB73FFF7C2FFFB7B1846BE
:103790001037BD4680BD00BF0038004080B582B004
:1037A00000AF03460A46FB711346BB71FB7963F019
:1037B0007F03DBB21A46BB7919461046FFF7B4FF08
:1037C00000BF0837BD4680BD80B584B000AF03465A
:1037D000FB71FB7903F07F031846FFF7C1FF034637
:1037E000FB73FB7B18461037BD4680BD80B485B0A7
:1037F00000AFF860B9607A60FB68043BFB60FB686F
:103800004FF080721A60FB68043BFB60BA68FB688B
:103810001A60FB68043BFB600C4AFB681A60FB689B
:10382000143BFB607A68FB681A60FB68043BFB6032
:10383000FB686FF002021A60FB68203BFB60FB68CC
:1038400018461437BD465DF8047B704751380008B0
:1038500080B500AF054B1B68B3F1FF3F02D000F00D
:10386000CFF8FEE700F0CCF8FEE700BFDC00002058
:10387000064B19680868B0E8F04F80F30988BFF379
:103880006F8F4FF0000080F311887047EC0A002022
:1038900000BF00BF06480068006880F3088862B671
:1038A000BFF34F8FBFF36F8F00DF00BF00BF00007B
:1038B00008ED00E080B584B000AF2C4BFB60FB68E6
:1038C0001B78DBB2BB60FB68FF221A70FB681B78B9
:1038D000DBB2FB71FB79DBB203F05003DAB2244BAD
:1038E0001A70244B07221A6009E0224B1B68013B27
:1038F000204A1360FB79DBB25B00DBB2FB71FB7922
:10390000DBB25BB2002BF0DB1A4B1B681B02194ABF
:103910001360184B1B6803F4E063164A1360BB681E
:10392000DAB2FB681A70144A134B1B6843F4700335
:103930001360114A104B1B6843F07043136000F092
:103940009BF80E4B00221A6000F0B2F80C4A0C4BA8
:103950001B6843F040431360FFF79CFFFFF778FFBD
:10396000002318461037BD4680BD00BF00E400E0CC
:10397000EC0B0020F00B002020ED00E0DC0000202C
:1039800034EF00E080B400AF064B4FF080521A6075
:10399000BFF34F8FBFF36F8F00BFBD465DF8047B51
:1039A000704700BF04ED00E080B500AF00F028F8DC
:1039B000054B1B680133044A1360BFF34F8FBFF3FD
:1039C0006F8F00BF80BD00BFDC00002080B500AF5E
:1039D0000A4B1B68002B02D100F012F8FEE7074BE0
:1039E0001B68013B054A1360044B1B68002B02D186
:1039F000002000F00FF800BF80BD00BFDC000020F9
:103A0000EFF311804FF0500181F3118870470023CC
:103A1000184600BF80F31188704700BFEFF309809C
:103A2000BFF36F8F124B1A681EF0100F08BF20ED06
:103A3000108A20E9F04F10604DF8043D4FF050001F
:103A400080F31188FEF72CFF4FF0000080F31188FF
:103A500008BC19680868B0E8F04F1EF0100F08BFE6
:103A6000B0EC108A80F30988BFF36F8F704700BFF6
:103A7000EC0A002000BF00BF80B400AF084A094B29
:103A80001B680949A1FB03139B09013B1360074B0A
:103A900007221A6000BFBD465DF8047B704700BF77
:103AA00014E000E0C8000020D34D621010E000E0F8
:103AB000DFF80C00016841F470010160704700BF3D
:103AC00088ED00E080B582B000AFEFF305837B6046
:103AD0007B680F2B0CD90E4A7B6813441B78FB7054
:103AE0000C4B1B78FA789A4202D2FFF789FFFEE767
:103AF000094B1B6803F4E062084B1B689A4202D929
:103B0000FFF77EFFFEE700BF0837BD4680BD00BF60
:103B1000F0E300E0EC0B00200CED00E0F00B0020E7
:103B200080B584B000AF786039607B68FB60FB686B
:103B3000002B02D1FFF764FFFEE7FFF735FFFB68BC
:103B40001A68FB68DB6BF968096C01FB03F31A4424
:103B5000FB685A60FB6800229A63FB681A68FB687E
:103B60009A60FB681A68FB68DB6B013BF968096CBB
:103B700001FB03F31A44FB68DA60FB684FF0FF3285
:103B80005A64FB684FF0FF329A643B68002B0ED1F9
:103B9000FB681B69002B14D0FB6810331846FEF736
:103BA0002FFF0346012B0CD1FFF7ECFE09E0FB6869
:103BB00010331846FFF740FBFB6824331846FFF725
:103BC0003BFBFFF703FF012318461037BD4680BDBE
:103BD00080B588B000AFF860B9601346FB71002370
:103BE000FB61FB68002B2AD0542003F075FBB86101
:103BF000BB69002B23D0FB68BA6802FB03F30133D7
:103C00007B61786903F068FB0246BB691A60BB6997
:103C10001B68002B10D0BB69FA68DA63BB69BA680D
:103C20001A640121B869FFF77BFFBB69FA7983F851
:103C30005020BB69FB6102E0B86903F093FBFB69AC
:103C4000002B02D1FFF7DCFEFEE7FB6918462037A8
:103C5000BD4680BD80B584B000AF0346FB715420E3
:103C600003F03AFBF860FB68002B30D0FB680022C1
:103C70005A60FB6800221A60FB6800229A60FB68A9
:103C80000022DA60FB6800229A63FB680122DA6393
:103C9000FB6800221A64FB684FF0FF325A64FB682D
:103CA0004FF0FF329A64FB68FA7983F85020FB6882
:103CB00010331846FFF7C0FAFB6824331846FFF7A5
:103CC000BBFA002300220021F86800F00BF8FB6823
:103CD000002B02D1FFF794FEFEE7FB681846103771
:103CE000BD4680BD80B588B000AFF860B9607A602D
:103CF0003B600023FB61FB68BB61BB69002B02D109
:103D0000FFF77EFEFEE7BB68002B03D1BB691B6C8F
:103D1000002B01D1012300E00023002B02D1FFF78B
:103D20006FFEFEE73B68022B03D1BB69DB6B012B07
:103D300001D1012300E00023002B02D1FFF760FE38
:103D4000FEE7FFF7B3F80346002B02D17B68002B98
:103D500001D1012300E00023002B02D1FFF750FE28
:103D6000FEE7FFF721FEBB699A6BBB69DB6B9A42EA
:103D700002D33B68022B16D13A68B968B86900F0E3
:103D8000B3F9BB695B6A002B09D0BB6924331846C1
:103D9000FEF736FE0346012B01D1FFF7F3FDFFF7D7
:103DA00015FE012356E07B68002B03D1FFF70EFEC2
:103DB00000234FE0FB69002B06D107F110031846E2
:103DC000FEF77AFE0123FB61FFF700FEFEF70AFC17
:103DD000FFF7EAFDBB695B6CB3F1FF3F02D1BB6942
:103DE00000225A64BB699B6CB3F1FF3F02D1BB69EF
:103DF00000229A64FFF7EAFD3A1D07F1100311460D
:103E00001846FEF773FE0346002B1DD1B86900F07B
:103E10005BFA0346002B11D0BB6910337A68114658
:103E20001846FEF78FFDB86900F0ECF9FEF7E8FBE5
:103E30000346002B95D1FFF7A5FD92E7B86900F086
:103E4000E1F9FEF7DDFB8CE7B86900F0DBF9FEF77E
:103E5000D7FB002318462037BD4680BD80B588B00B
:103E600000AFF860B9607A603B60FB68BB61BB691A
:103E7000002B02D1FFF7C4FDFEE7BB68002B03D186
:103E8000BB691B6C002B01D1012300E00023002B38
:103E900002D1FFF7B5FDFEE73B68022B03D1BB69FA
:103EA000DB6B012B01D1012300E00023002B02D1A9
:103EB000FFF7A6FDFEE7FFF705FEFFF7A1FD78611E
:103EC000BB699A6BBB69DB6B9A4202D33B68022BDE
:103ED00024D13A68B968B86900F006F9BB699B6CEF
:103EE000B3F1FF3F12D1BB695B6A002B13D0BB69F2
:103EF00024331846FEF784FD0346002B0BD07B6865
:103F0000002B08D07B6801221A6004E0BB699B6C1F
:103F10005A1CBB699A640123FB6101E00023FB6129
:103F20007869FFF777FDFB6918462037BD4680BDED
:103F300080B58AB000AFF860B9607A603B6000235A
:103F40007B62FB683B623B6A002B02D1FFF758FDA6
:103F5000FEE7BB68002B03D13B6A1B6C002B01D131
:103F6000012300E00023002B02D1FFF749FDFEE70B
:103F7000FEF79CFF0346002B02D17B68002B01D18A
:103F8000012300E00023002B02D1FFF739FDFEE7FB
:103F9000FFF70AFD3B6A9B6B002B3BD03B6ADB685B
:103FA000FB61B968386A00F007F93B68002B1CD147
:103FB0003B6A9B6B5A1E3B6A9A633B6A1B68002BE9
:103FC00004D1FEF763FF02463B6A5A603B6A1B69F5
:103FD000002B1BD03B6A10331846FEF711FD034639
:103FE000012B13D1FFF7CEFC10E03B6AFA69DA60CF
:103FF0003B6A5B6A002B09D03B6A24331846FEF704
:10400000FFFC0346002B01D0FFF7BCFCFFF7DEFCF2
:10401000012364E07B68002B03D1FFF7D7FC00236A
:104020005DE07B6A002B06D107F114031846FEF70A
:1040300043FD01237B62FFF7C9FCFEF7D3FAFFF7CC
:10404000B3FC3B6A5B6CB3F1FF3F02D13B6A0022D9
:104050005A643B6A9B6CB3F1FF3F02D13B6A00227A
:104060009A64FFF7B3FC3A1D07F114031146184692
:10407000FEF73CFD0346002B2BD1386A00F00EF909
:104080000346002B1FD03B6A1B68002B08D1FFF7AB
:104090008BFC3B6A5B681846FEF726FFFFF796FC31
:1040A0003B6A24337A6811461846FEF74BFC386A9F
:1040B00000F0A8F8FEF7A4FA0346002B7FF468AFDF
:1040C000FFF760FC64E7386A00F09CF8FEF798FAA6
:1040D0005EE7386A00F096F8FEF792FA0023184679
:1040E0002837BD4680BD00BF80B584B000AFF86002
:1040F000B9607A60FB681B6C002B0CD1FB681B68F5
:10410000002B4FD1FB685B681846FEF74BFFFB683E
:1041100000225A6046E07B68002B19D1FB68986842
:10412000FB681B6C1A46B96804F034F8FB689A689F
:10413000FB681B6C1A44FB689A60FB689A68FB6812
:104140005B689A422ED3FB681A68FB689A6029E084
:10415000FB68D868FB681B6C1A46B96804F01AF84B
:10416000FB68DA68FB681B6C5B421A44FB68DA6028
:10417000FB68DA68FB681B689A4207D2FB685A68DA
:10418000FB681B6C5B421A44FB68DA607B68022B9D
:1041900008D1FB689B6B002B04D0FB689B6B5A1EFD
:1041A000FB689A63FB689B6B5A1CFB689A6300BFB1
:1041B0001037BD4680BD00BF80B582B000AF7860CB
:1041C00039607B681B68002B18D07B68DA687B68D5
:1041D0001B6C1A447B68DA607B68DA687B685B6812
:1041E0009A4203D37B681A687B68DA607B68D96877
:1041F0007B681B6C1A46386803F0CCFF00BF083799
:10420000BD4680BD80B582B000AF7860FFF7CCFBC3
:1042100012E07B685B6A002B13D07B68243318465E
:10422000FEF7EEFB0346002B01D0FEF7AFFC7B68E8
:104230009B6C5A1E7B689A647B689B6C002BE8DC45
:1042400000E000BF7B684FF0FF329A64FFF7BEFBCF
:10425000FFF7AAFB12E07B681B69002B13D07B6879
:1042600010331846FEF7CCFB0346002B01D0FEF7B7
:104270008DFC7B685B6C5A1E7B685A647B685B6C48
:10428000002BE8DC00E000BF7B684FF0FF325A648F
:10429000FFF79CFB00BF0837BD4680BD80B584B0EA
:1042A00000AF7860FFF780FB7B689B6B002B02D12F
:1042B0000123FB6001E00023FB60FFF787FBFB6845
:1042C00018461037BD4680BD80B584B000AF786019
:1042D000FFF76AFB7B689A6B7B68DB6B9A4202D1C3
:1042E0000123FB6001E00023FB60FFF76FFBFB682D
:1042F00018461037BD4680BD80B485B000AF7860E9
:1043000039600023FB6014E00E4AFB6852F833303A
:10431000002B0BD10B49FB683A6841F83320094A5E
:10432000FB68DB0013447A685A6005E0FB680133E0
:10433000FB60FB68072BE7D900BF1437BD465DF86B
:10434000047B7047B838012080B584B000AF786036
:1043500039607B68FB60FFF727FBFB685B6CB3F1A0
:10436000FF3F02D1FB6800225A64FB689B6CB3F1EB
:10437000FF3F02D1FB6800229A64FFF727FBFB682E
:104380009B6B002B05D1FB68243339681846FEF778
:104390000FFBF868FFF736FF00BF1037BD4680BD42
:1043A00080B487B000AFF860B9607A60FB687B6169
:1043B000BB683B6107E07B695A1C7A613A69511C12
:1043C000396112781A707B685A1E7A60002BF2D11C
:1043D00000BF1C37BD465DF8047B704780B487B0D2
:1043E00000AFF860B9607A60FB687B6105E07B69CB
:1043F0005A1C7A61BA68D2B21A707B685A1E7A6007
:10440000002BF4D100BF1C37BD465DF8047B70471C
:1044100080B489B000AFF860B9607A60FB68FB6176
:10442000BB68BB6100237B6100BF7B685A1E7A605A
:10443000002B0DD0FB695A1CFA611B781946BB6929
:104440005A1CBA611B78CB1A7B617B69002BECD0BC
:104450007B6918462437BD465DF8047B704700BF72
:1044600080B483B000AF7860396002E07B680133CC
:104470007B607B681B78002B05D07B681B781A4615
:104480003B689A42F2D17B681B7818460C37BD46D0
:104490005DF8047B704700BF80B586B000AF7860E0
:1044A0000023FB737B681B79002B34D07B681B6B6C
:1044B0007B617B6858787B6803F1340101237A695A
:1044C000FCF758F80346002B02D00123FB7322E0CF
:1044D0007B6800221A717B685B6A7A69D21A7B68F2
:1044E000DB699A4217D27B68DB783B6110E07B681E
:1044F000DB697A6913447B617B6858787B6803F1D8
:10450000340101237A69FCF735F83B69013B3B61D3
:104510003B69012BEBD8FB7B18461837BD4680BDA5
:1045200080B584B000AF786039600023FB737B688E
:104530001A6B3B689A421BD07868FFF7ADFF0346C1
:10454000FB73FB7B002B13D17B6858787B6803F1EE
:10455000340101233A68FBF7DFFF0346002B04D048
:104560004FF0FF333B600123FB737B683A681A63AB
:10457000FB7B18461037BD4680BD00BF80B584B0B8
:1045800000AF78607868FFF787FF0346FB73FB7B1B
:10459000002B40F090807B681B78032B7FD17B68D9
:1045A0005B79012B7BD17B6834334FF4007200219F
:1045B0001846FFF713FF7B68552283F832227B6889
:1045C000AA2283F833227B68522283F834207B6846
:1045D000522283F835207B68612283F836207B687D
:1045E000412283F837207B68722283F818227B6887
:1045F000722283F819227B68412283F81A227B6891
:10460000612283F81B227B681B69DAB27B6883F81E
:104610001C227B681B699BB21B0A9BB2DAB27B68C7
:1046200083F81D227B681B691B0CDAB27B6883F858
:104630001E227B681B691B0EDAB27B6883F81F227F
:104640007B68DB68DAB27B6883F820227B68DB68F2
:104650009BB21B0A9BB2DAB27B6883F821227B688B
:10466000DB681B0CDAB27B6883F822227B68DB688C
:104670001B0EDAB27B6883F823227B681B6A5A1C04
:104680007B681A637B6858787B6803F134017B6828
:104690001A6B0123FBF76EFF7B6800225A717B685F
:1046A0005B78002200211846FBF792FF0346002B9F
:1046B00001D00123FB73FB7B18461037BD4680BD3C
:1046C00080B483B000AF786039603B68023B3B60E8
:1046D0007B689B699A1E3B689A4201D8002308E0D8
:1046E0007B689B781A463B6803FB02F27B68DB6AB7
:1046F000134418460C37BD465DF8047B704700BF75
:1047000080B586B000AF786039603B68012B04D972
:104710007B689A693B689A4202D801237B61A3E0D7
:104720004FF0FF337B617B681B78022B46D0032B55
:1047300066D0012B40F08E803B683B613B695B0893
:104740003A6913443B617B685A6A3B695B0A1344CC
:1047500019467868FFF7E4FE0346002B7DD13B69DC
:104760005A1C3A61C3F308037A68134493F834304F
:10477000FB607B685A6A3B695B0A13441946786898
:10478000FFF7CEFE0346002B69D13B69C3F3080354
:104790007A68134493F834301B021A46FB681343BB
:1047A000FB603B6803F00103002B02D0FB681B0990
:1047B00002E0FB68C3F30B037B6155E07B685A6A38
:1047C0003B681B0A134419467868FFF7A9FE0346A5
:1047D000002B46D13B685B0003F4FF7330337A68EB
:1047E00013440433BB60BB6801331B781B021AB24D
:1047F000BB681B781BB213431BB29BB27B6133E0D7
:104800007B685A6A3B68DB09134419467868FFF7EE
:1048100087FE0346002B26D13B689B0003F4FE7302
:1048200030337A6813440433BB60BB6803331B78AE
:104830001A06BB6802331B781B041343BA680132A3
:10484000127812021343BA681278134323F07043AC
:104850007B6109E001237B6106E000BF04E000BF4B
:1048600002E000BF00E000BF7B6918461837BD4674
:1048700080BD00BF80B588B000AFF860B9607A60D5
:10488000BB68012B04D9FB689A69BB689A4202D8BD
:104890000223FB77F2E0FB681B78022B74D0032B1A
:1048A00000F09980012B40F0DF80BB68BB61BB69E1
:1048B0005B08BA691344BB61FB685A6ABB695B0A4F
:1048C00013441946F868FFF72BFE0346FB77FB7F7E
:1048D000002B40F0CC80BB695A1CBA61C3F30803BB
:1048E0003033FA68134404337B61BB6803F001037F
:1048F000002B0DD07B691B785BB203F00F035AB21B
:104900007B68DBB21B015BB213435BB2DBB201E03D
:104910007B68DBB27A691370FB6801221A71FB684D
:104920005A6ABB695B0A13441946F868FFF7F8FD39
:104930000346FB77FB7F002B40F09B80BB69C3F3F2
:1049400008033033FA68134404337B61BB6803F017
:104950000103002B03D07B681B09DBB20EE07B69EF
:104960001B785BB223F00F035AB27B681B0A5BB261
:1049700003F00F035BB213435BB2DBB27A691370CF
:10498000FB6801221A7179E0FB685A6ABB681B0A4E
:1049900013441946F868FFF7C3FD0346FB77FB7F16
:1049A000002B68D1BB685B0003F4FF733033FA68F7
:1049B000134404337B617B68DAB27B691A707B69CC
:1049C00001337A6892B2120A92B2D2B21A70FB68BC
:1049D00001221A7152E0FB685A6ABB68DB09134472
:1049E0001946F868FFF79CFD0346FB77FB7F002B19
:1049F00043D1BB689B0003F4FE733033FA68134461
:104A000004337B617B6903331B781A067B690233AD
:104A10001B781B0413437A69013212781202134384
:104A20007A691278134303F070437A6813437B600A
:104A30007B68DAB27B691A707B6901337A6892B25B
:104A4000120A92B2D2B21A707B6902337A68120CDF
:104A5000D2B21A707B6903337A68120ED2B21A701E
:104A6000FB6801221A7109E00223FB7706E000BF10
:104A700004E000BF02E000BF00E000BFFB7F18467B
:104A80002037BD4680BD00BF80B584B000AF7860E0
:104A900039603B68012B04D97B689A693B689A426C
:104AA00002D80223FB733DE00023FB7331E0396839
:104AB0007868FFF725FEB860BB68002B2FD0BB6875
:104AC000012B02D10223FB732CE0BB68B3F1FF3F43
:104AD00002D10123FB7325E0002239687868FFF7D3
:104AE000C9FE0346FB73FB7B002B1AD17B681B6955
:104AF000B3F1FF3F0BD07B681B695A1C7B681A61BE
:104B00007B685B7943F00103DAB27B685A71BB685A
:104B10003B607B689A693B689A42C8D802E000BF54
:104B200000E000BFFB7B18461037BD4680BD00BFCC
:104B300080B586B000AF786039603B68002B0DD13E
:104B40007B68DB683B613B69002B04D07B689A691A
:104B50003B699A421BD801233B6118E039687868A9
:104B6000FFF7CEFDB860BB68012B01D801236EE0D2
:104B7000BB68B3F1FF3F01D1BB6868E07B689A690D
:104B8000BB689A4201D9BB6861E03B683B613B6905
:104B90007B617B6901337B617B689A697B699A429F
:104BA00007D802237B617A693B699A4201D90023C5
:104BB0004DE079697868FFF7A3FDB860BB68002B0A
:104BC0000ED0BB68B3F1FF3F02D0BB68012B01D10F
:104BD000BB683CE07A693B699A42DAD1002336E04F
:104BE00000BF6FF0704279697868FFF743FE0346B3
:104BF000FB73FB7B002B09D13B68002B06D07A6945
:104C000039687868FFF736FE0346FB73FB7B002BA1
:104C100014D17B687A69DA607B681B69B3F1FF3F66
:104C200014D07B681B695A1E7B681A617B685B79AC
:104C300043F00103DAB27B685A7107E0FB7B012B7A
:104C400002D14FF0FF3300E001237B617B691846FE
:104C50001837BD4680BD00BF80B586B000AF786014
:104C600039603B689AB27B68DA807B689B687B61BD
:104C70007B69012B05D07B681B689A697B699A4226
:104C800001D8022363E07B69002B08D17B681B6895
:104C90001B78032B03D17B681B689B6A7B617B6954
:104CA000002B0DD17B681B681B891A463B689A4212
:104CB00001D802234BE07B681B689B6A3B612CE0B8
:104CC0007B681B689B781B01FB601BE07B681B6893
:104CD00079691846FFF714FD78617B69B3F1FF3FEE
:104CE00001D1012333E07B69012B05D97B681B6867
:104CF0009A697B699A4201D8022328E03A68FB68E6
:104D0000D31A3B603A68FB689A42DFD27B681B6823
:104D100079691846FFF7D4FC38617B687A69DA60F4
:104D20003B69002B01D1022311E03B681A093B6962
:104D30001A447B681A617B681B6803F134023B6884
:104D400003F00F035B011A447B685A610023184685
:104D50001837BD4680BD00BF90B587B000AF786002
:104D600039607B68DB880133FB60FB689BB2002BFA
:104D700003D07B681B69002B01D10423BBE0FB68D7
:104D800003F00F03002B40F0A6807B681B695A1CC0
:104D90007B681A617B68DB68002B09D17B681B6824
:104DA0001B891A46FB689A4200F295800423A2E010
:104DB000FB681B097A6812689278013A1340002B4D
:104DC00040F089807B681A687B68DB68194610466A
:104DD000FFF796FC78617B69012B01D802238AE0FA
:104DE0007B69B3F1FF3F01D1012384E07B681B683D
:104DF0009A697B699A4262D83B68002B01D10423EF
:104E000079E07B681A687B68DB6819461046FFF713
:104E10008FFE78617B69002B01D107236BE07B69F2
:104E2000012B01D1022366E07B69B3F1FF3F01D181
:104E3000012360E07B681B681846FFF72DFB0346E3
:104E4000002B01D0012356E07B681B6834334FF4FC
:104E5000007200211846FFF7C1FA7B681C687B6866
:104E60001B6879691846FFF72BFC03462363002370
:104E70003B6115E07B681B6801221A717B681B6827
:104E80001846FFF709FB0346002B01D0012332E04F
:104E90007B681B681A6B01321A633B6901333B6103
:104EA0007B681B689B781A463B699A42E2D87B680C
:104EB0001B687A681268116B3A698A1A1A637B68F0
:104EC0007A69DA607B681B6879691846FFF7F8FB36
:104ED00002467B681A61FB689AB27B68DA807B685D
:104EE0001B6803F13402FB6803F00F035B011A44F3
:104EF0007B685A61002318461C37BD4690BD00BF31
:104F000080B584B000AF7860396000217868FFF721
:104F1000A3FE0346FB73FB7B002B2DD10023BB605C
:104F20007B681A687B681B6919461046FFF7F8FA18
:104F30000346FB73FB7B002B1DD17B685B691B78F1
:104F4000E52B04D07B685B691B78002B07D1BB681D
:104F50000133BB60BA683B689A4202D10CE000237F
:104F6000BB6001217868FFF7F7FE0346FB73FB7B0C
:104F7000002BD5D000E000BFFB7B042B01D1072321
:104F8000FB73FB7B18461037BD4680BD80B485B0EF
:104F900000AF786039603B681B331B781B021AB284
:104FA0003B681A331B781BB213431BB29BB2FB60E6
:104FB0007B681B78032B0FD13B6815331B781B02D2
:104FC0001AB23B6814331B781BB213431BB29BB25B
:104FD0001B04FA681343FB60FB6818461437BD4690
:104FE0005DF8047B704700BF80B483B000AF786089
:104FF00039607B681A333A68D2B21A707B681B3307
:105000003A6892B2120A92B2D2B21A707B68143322
:105010003A68120CD2B21A707B6815333A68120CD7
:1050200092B2120A92B2D2B21A7000BF0C37BD46C9
:105030005DF8047B704700BF80B586B000AF786034
:1050400039603B681B7823F040035A1E13465B000F
:1050500013449B0013447B6100233B610123FB81CC
:105060002B4A3B6913441B7801333A6813441B787D
:105070001B021AB226493B690B441B7819463B6850
:105080000B441B781BB213431BB2BB81FB89002B63
:1050900019D0BB891846FBF7B3F80346FB817B693F
:1050A000FE2B0ED87B695A1C7A615B007A68134428
:1050B0001B881846FBF7A4F803461A46FB8993425F
:1050C00008D000231FE0BB894FF6FF72934201D046
:1050D000002318E03B6901333B613B690C2BBFD9CE
:1050E0003B681B7803F04003002B0BD0FB89002B9F
:1050F00008D07B695B007A6813441B88002B01D0C1
:10510000002300E0012318461837BD4680BD00BFCC
:10511000A8B7000880B489B000AFF860B960114644
:105120001A460B46FB711346BB71BB680D33BA7947
:105130001A70BB680B330F221A70BB680C33002245
:105140001A70BB681A3300221A70BB681B33002226
:105150001A70FB795A1E13465B0013449B001344DC
:10516000FB610023FB820023BB61FB8A4FF6FF72C9
:10517000934207D0FB695A1CFA615B00FA6813443A
:105180001B88FB821D4ABB6913441B781A46BB6807
:105190001344FA8AD2B21A70184ABB6913441B78B6
:1051A0000133BA681344FA8A120A92B2D2B21A7060
:1051B000FB8A002B02D14FF6FF73FB82BB690133E0
:1051C000BB61BB690C2BD0D9FB8A4FF6FF729342AF
:1051D00006D0FB695B00FA6813441B88002B03D1DF
:1051E000FB7943F04003FB71BB68FA791A7000BF8A
:1051F0002437BD465DF8047B704700BFA8B70008A0
:1052000080B58CB000AFF860B9607A603B600B226B
:10521000B968F868FFF7C4F83B68052B2BD93B68E1
:10522000FB6122E07B689A1C7A601B887B840023E8
:10523000BB6217E0FB695A007B8C03F00103134447
:10524000FB617B8C5B087B84FB6903F48033002B60
:1052500005D0FB6983F4883383F02103FB61BB6ACB
:105260000133BB62BB6A0F2BE4D97B681B88002B20
:10527000D8D1FB693B600723BB623B68DBB203F01C
:105280000F03DBB2303387F82F3097F82F30392BEC
:1052900004D997F82F30073387F82F30BB6A5A1E8E
:1052A000BA6207F13002134497F82F2003F81C2C40
:1052B0003B681B093B603B68002BDED107F1140201
:1052C000BB6A13447E221A7000237B6202E07B6A71
:1052D00001337B627A6ABB6A9A4205D2FA687B6ABA
:1052E00013441B78202BF2D17B6A5A1C7A62FA682D
:1052F0001A44BB6A072B08D8BB6A591CB96207F16C
:1053000030010B4413F81C3C00E0202313707B6A2F
:10531000072BE9D900BF3037BD4680BD80B485B0CA
:1053200000AF78600023FB730B23BB60FB7BDAB21A
:105330005208DB011343DAB27B68591C79601B7891
:105340001344FB73BB68013BBB60BB68002BEDD112
:10535000FB7B18461437BD465DF8047B704700BFE1
:1053600080B586B000AF786000217868FFF774FCE4
:105370000346FB75FB7D002B01D0FB7DA0E0FF23E6
:105380003B753B7D7B757B684FF6FF721A847B68AB
:105390001A687B681B6919461046FFF7C1F8034677
:1053A000FB75FB7D002B40F085807B685B693B6172
:1053B0003B691B78BB75BB7D002B02D10423FB75B9
:1053C0007DE03B690B331B7803F03F03FB73BB7D30
:1053D000E52B07D0FB7B03F00803002B09D0FB7BF8
:1053E0000F2B06D0FF237B757B684FF6FF721A8464
:1053F00055E0FB7B0F2B2FD17B68DB69002B4ED058
:10540000BB7D03F04003002B0CD03B695B7B3B75FD
:10541000BB7D23F04003BB75BB7D7B757B68DA8861
:105420007B681A84BA7D7B7D9A4212D13B690D3329
:105430001B783A7D9A420CD17B68DB693969184642
:10544000FFF7FAFD0346002B03D07B7D013BDBB267
:1054500000E0FF237B7522E07B7D002B07D13869BC
:10546000FFF75CFF03461A463B7D934224D07B68DE
:105470009B690B331B7803F00103002B09D17B6878
:105480009B690B2219463869FEF7C2FF0346002BC1
:1054900014D0FF237B757B684FF6FF721A840021BE
:1054A0007868FFF759FC0346FB75FB7D002B3FF442
:1054B0006EAF04E000BF02E000BF00E000BFFB7D74
:1054C00018461837BD4680BD80B58CB000AF7860F7
:1054D0007B689B693B627B68DB69FB6107F10C03BE
:1054E0000C22396A1846FEF75BFFFB7D03F02003B0
:1054F000002B01D00623E0E0FB7D03F00103002B2D
:1055000035D03B6A0B3300221A707B680022DA61C7
:105510000123BB6213E007F10C01BB6AFA69386A28
:10552000FFF76EFE7868FFF71BFF034687F82F3002
:1055300097F82F30002B06D1BB6A0133BB62BB6AE0
:10554000632BE8D900E000BFBB6A642B01D10723BD
:10555000B3E097F82F30042B02D097F82F30ACE04F
:105560003B6A0B33FA7D1A707B68FA69DA61FB7D5E
:1055700003F00203002B14D00023BB6202E0BB6ADD
:105580000133BB62BB6A5B00FA6913441B88002BC2
:10559000F5D1BB6A19334B4AA2FB03239B087B62FC
:1055A00001E001237B62796A7868FFF7A9FC034672
:1055B00087F82F3097F82F30002B4BD17B6A013BB7
:1055C0007B627B6A002B45D07B68DB881A467B6A4E
:1055D000D31A19467868FFF73FFB034687F82F3048
:1055E00097F82F30002B35D17B689B691846FFF761
:1055F00095FE0346FB767B681A687B681B69194633
:105600001046FEF78DFF034687F82F3097F82F30AE
:10561000002B1ED17B68D8697B6859697B6ADAB236
:10562000FB7EFFF777FD7B681B6801221A71002162
:105630007868FFF791FB034687F82F3097F82F30F3
:10564000002B07D17B6A013B7B627B6A002BD2D1A6
:1056500000E000BF97F82F30002B2CD17B681A6830
:105660007B681B6919461046FEF75AFF034687F808
:105670002F3097F82F30002B1DD17B685B692022DB
:1056800000211846FEF7AAFE7B6858697B689B6973
:105690000B221946FEF784FE7B685B690C337A683F
:1056A00092690B32127802F01802D2B21A707B683B
:1056B0001B6801221A7197F82F3018463037BD4603
:1056C00080BD00BF4FECC44E80B58AB000AF78609B
:1056D00039603B681B683B6102E03B6901333B6119
:1056E0003B691B782F2BF8D03B691B785C2BF4D0DF
:1056F0007B68DB69FB6000237B617B69BB61BB6905
:105700005A1CBA613A6913441B78BB84BB8C1F2BAB
:105710002FD9BB8C2F2B2CD0BB8C5C2B29D07B6939
:10572000FE2B01D90623C7E1BB8CDBB2BB84BB8C4B
:1057300001211846FAF728FD0346BB84BB8C002BD9
:1057400001D10623B8E1BB8C7F2B09D8BB8C19464D
:10575000A448FEF785FE0346002B01D00623ABE1EB
:105760007B695A1C7A615B00FA681344BA8C1A8010
:10577000C5E73A69BB691A443B681A60BB8C1F2BAA
:1057800001D8042300E0002387F826307B69012B31
:1057900009D17B6903F10043013B5B00FA681344C4
:1057A0001B882E2B16D07B69022B4CD17B6903F111
:1057B0000043013B5B00FA6813441B882E2B42D147
:1057C0007B6903F10043023B5B00FA6813441B88CA
:1057D0002E2B38D17B695B00FA68134400221A80B3
:1057E00000233B620EE07B689A693B6A1344396A86
:1057F0007A69914201D22E2200E020221A703B6A7F
:1058000001333B623B6A0A2BEDD97B689A693B6A9C
:10581000134497F8262042F02002D2B21A700023D7
:105820004AE17B6903F10043013B5B00FA681344E2
:105830001B88BB84BB8C202B02D0BB8C2E2B06D1AB
:105840007B69013B7B617B69002BEAD100E000BFF3
:105850007B69002B01D106232EE17B695B00FA688E
:10586000134400221A807B689B690B222021184672
:10587000FEF7B4FD0023BB6102E0BB690133BB61ED
:10588000BB695B00FA6813441B88202BF5D0BB6909
:105890005B00FA6813441B882E2BEED0BB69002BEB
:1058A00009D097F8263043F0030387F8263002E04A
:1058B0007B69013B7B617B69002B09D07B6903F12C
:1058C0000043013B5B00FA6813441B882E2BEFD189
:1058D00000233B62002387F827300823FB61BB6964
:1058E0005A1CBA615B00FA6813441B88BB84BB8CEA
:1058F000002B00F09680BB8C202B06D0BB8C2E2B6F
:105900000AD1BA697B699A4206D097F8263043F0EB
:10591000030387F8263083E03A6AFB699A4203D290
:10592000BA697B699A4223D1FB690B2B06D197F8A0
:10593000263043F0030387F8263075E0BA697B69A7
:105940009A4205D097F8263043F0030387F82630B3
:10595000BA697B699A4266D87B69BB6108233B625E
:105960000B23FB6197F827309B0087F8273057E01F
:10597000BB8C7F2B14D9BB8C00211846FAF704FC92
:105980000346BB84BB8C002B04D0BB8C803B164AE7
:10599000D35CBB8497F8263043F0020387F82630A7
:1059A000BB8C002B07D0BB8C19461048FEF758FD66
:1059B0000346002B08D05F23BB8497F8263043F0C2
:1059C000030387F8263022E0BB8C402B10D9BB8C18
:1059D0005A2B0DD897F8273043F0020387F8273069
:1059E00015E000BFB8B7000828B70008C4B7000822
:1059F000BB8C602B0BD9BB8C7A2B08D897F827303F
:105A000043F0010387F82730BB8C203BBB847B68C5
:105A10009A693B6A591C39621344BA8CD2B21A7023
:105A20005DE700BF00E000BF7B689B691B78E52B4A
:105A300003D17B689B6905221A70FB69082B04D18E
:105A400097F827309B0087F8273097F8273003F026
:105A50000C030C2B05D097F8273003F00303032B1E
:105A600005D197F8263043F0020387F8263097F8DF
:105A7000263003F00203002B17D197F8273003F0EC
:105A80000303012B05D197F8263043F0100387F864
:105A9000263097F8273003F00C03042B05D197F834
:105AA000263043F0080387F826307B689B690B3368
:105AB00097F826201A70002318462837BD4680BD67
:105AC00080B584B000AF786039603B681B782F2BBD
:105AD00003D03B681B785C2B06D13B6801333B60ED
